:02000004080AE8
:1000000000000A08485B0A08000006000600050117
:080010000402DE0500000000FF
:04001800CC4B0A08BB
:1000200009480A4908B5884205D0094A824202D0E7
:10003000121A04F06BFD0748074A0021121A04F057
:1000400070FD064808BD00BF00000020A45A0A0841
:100050007C00002080000020500700205007002076
:1000600070B502F073FE074B074C1E46E41AA40855
:100070000025A54204D056F8253098470135F8E709
:1000800070BD00BF585A0A08A05A0A0800F0D4B937
:1000900008B500F0D5FABDE8084002F019BE02F03C
:1000A000FDBA02F003BB000008B5034A00210C2092
:1000B00002F038FAFEE700BFD1220A080078B0FA51
:1000C00080F04009704701230370704710B5044663
:1000D000006803F03BFB204610BD37B505469DF890
:1000E000184023438DF800303C2302F09DFF284642
:1000F00003B030BD08B504F051F80022074B04F0FE
:10010000A1F80022064B03F0EBFE04F04BFB04F0D9
:1001100033F80022014B04F0BFF908BD000059403C
:100120000000E03F38B5094802F034F8FFF7E2FF7D
:1001300002460B4604460D4604F01EFB10B920464D
:10014000294638BD0020024938BD00BF0801002003
:100150000000F0BF38B5094802F026F8FFF7CAFFE3
:1001600002460B4604460D4604F006FB10B9204635
:10017000294638BD0020024938BD00BF08010020D3
:100180000000F0BFF8B5002426461425C5B102F0E2
:10019000AFF8031BB3F5FA7F0746F7DB86F00106DD
:1001A000F4B22146022003F05EFC2146052003F054
:1001B0005AFC2146042003F056FC013D3C46E5E78D
:1001C000F8BD000070B50646174C0025204601F02A
:1001D00096FA2046012101F0C7F80123E382A382A9
:1001E000258265821149204602F0CDFB204603217D
:1001F00001F0BAF802223146204602F09FFC0C4979
:10020000204602F0C0FB204601F0F6FC02F070F838
:100210000446284642F20F75001BA84202DC02F099
:1002200067F8F9E770BD00BF90000020E94B0A08AD
:10023000F84B0A0838B505461B4C204601F05FFA1A
:100240000121204601F090F80123E382A3820023DC
:10025000238263821549204602F095FB0321204644
:1002600001F082F8002D05DA2D21204602F072FB04
:10027000694200E029460A220B4802F086FB0C493D
:10028000094802F080FB084801F0B6FC02F030F8A3
:1002900042F20F7504460020001BA84202DC02F067
:1002A00027F8F9E738BD00BF90000020FB4B0A0893
:1002B000024C0A082DE9F843002780460D461646F1
:1002C0003C46B8F1010F04D12146022003F0F7FBB0
:1002D00003E00021022003F0C6FB012D0CBF2946DC
:1002E0000021042003F0BFFB012E0CBF314600218A
:1002F000052003F0B8FB01F0FBFF8146C9EB0703C3
:10030000132B03DC01F0F4FF0746F7E70534FF2C5D
:10031000D7D10027B8F1010F04D12146022003F004
:10032000CEFB03E00021022003F09DFB012D0CBF5A
:1003300029460021042003F096FB012E0CBF314614
:100340000021052003F08FFB01F0D2FF8146C9EBAD
:100350000703132B03DC01F0CBFF0746F7E7053C4F
:10036000D8D1BDE8F88338B5046805467CB1636828
:10037000013B63605BB9236820469B689847A3688C
:10038000013BA3601BB923682046DB6898472846D9
:1003900038BD00002DE9F0438DB0074601F0A8FFFD
:1003A0006B46204A804651681068127A03C30DF1EB
:1003B0000C091A7000212422484604F0B2FB386868
:1003C000092203686946DB68002598472C464FF0F0
:1003D000FF36092D22D001F08BFFC8EB0000B0F5ED
:1003E000FA7F1BD2386803681B6998470028F0DD44
:1003F000386803685B699847082D49F8250008D1DB
:100400006442E4B2A04207D1069B059E03EB062698
:1004100002E00DB10444E4B20135DAE730460DB034
:10042000BDE8F083E04B0A0808B50248FFF7B2FFC9
:1004300008BD00BF88000020F8B52C4F2C4E0023CB
:10044000092239462B4D2C4802F000F900230922DD
:1004500031462A4802F0FAF80023022229462848A9
:1004600002F0F4F8002302222649274802F0EEF8B1
:100470000121032003F0E6FA0121022003F0E2FA51
:100480000121042003F0DEFA0121052003F0DAFA4D
:100490001E4C0021062003F0D5FA0221072003F0AC
:1004A000D1FAFFF76FFE204600F09EFF204601F0D4
:1004B00026F9204601F0A0FB154801F005FD642057
:1004C00002F0A4FBFFF72EFEC7E90001FFF742FE92
:1004D000C6E90001FFF7A8FF28604FF47A7002F028
:1004E00095FB01F005FF0B4B1860F8BD00010020E3
:1004F000F000002064010020064C0A080B4C0A089A
:10050000144C0A08F8000020184C0A08900000203B
:10051000080100208C00002038B5154B01241C7008
:1005200001F04EFE2046134C134D002102F012F84C
:100530000721204600F038FF2A461049204603F0E4
:100540005DFB0023162206210D4801F0BAFC03F0E2
:1005500003F90C4C00224FF41651206003F0F2F81E
:100560002A462046BDE83840074903F047BB00BF94
:10057000E8000020900000208000002075130A0889
:100580000801002088000020CD000A08F7B50746C2
:10059000284C0126204601F0B2F800252046012112
:1005A00000F0E2FE25826582E682A682224920468C
:1005B00002F0E9F92046032100F0D6FE0222394676
:1005C000204602F0BBFAB4F90E20B4F90C30A2F1C7
:1005D0001400A3F1140100B2009009B22046019664
:1005E00000F0F6FAE289A189103A10392046032377
:1005F00012B209B2009600F095FBE289A189043A93
:100600000439032312B209B22046009600F08AFB97
:10061000204601F0F1FA01F06BFE0446284642F252
:100620000F75001BA84202DC01F062FEF9E703B07F
:10063000F0BD00BF90000020214C0A08000000001F
:100640002DE9FF4701F054FEA14BA24A1968106042
:10065000401AA1499246096899468842C0F0F9803B
:10066000FFF760FD9D4D9E4CC5E90001FFF772FD4F
:10067000C4E90001FFF7D8FE9A4B0028064618602F
:10068000DFF8A482984F0EDBD5E900010022002399
:1006900004F04AF838B930CC00220023204629461D
:1006A00004F042F8C0B1914B00221A60904B012136
:1006B00019603B7888F80020002B00F0C3808D4B38
:1006C00002A81B788C498DF800208C4AFFF705FDA5
:1006D00003A8FFF748FEB5E00022894B20462946D3
:1006E00004F040F810B9B6F5FA6F1CDDD6210320EE
:1006F00003F0E5F9042388F800303B78042B0CD094
:100700007C4B00221B7802A88DF800207A497D4A94
:10071000FFF7E3FC03A8FFF726FE7B4B01221A60DC
:100720000023724A8BE068A3D3E9002320462946C0
:1007300004F018F830B10022714B2046294603F02E
:10074000FDFF28B96FF4AF62B318B3F5167F1FD25F
:10075000AA21032003F0B3F9032388F800303B7883
:10076000032B0CD0634B00221B7802A88DF80020CD
:100770006149664AFFF7B1FC03A8FFF7F4FD624A3E
:1007800000231360594A1360594B01221A6059E043
:1007900000225F4B2046294603F0E4FF38B14AA30C
:1007A000D3E900232046294603F0C8FF28B96FF497
:1007B0002F731E44B6F52F7F1ED25F21032003F056
:1007C0007EF9022388F800303B78022B0CD0494B8D
:1007D00000221B7802A88DF8002047494D4AFFF7F8
:1007E0007CFC03A8FFF7BFFD414A01231360464A82
:1007F000002111603D4A24E00022454B2046294655
:1008000003F09CFFF0B11421032003F058F90123F9
:1008100088F800303B78012B0CD0364B00221B7837
:1008200002A88DF8002034493B4AFFF756FC03A884
:10083000FFF799FD2D4B01221A60334A0023136004
:100840002B4A136098F800303B70DAF80030C9F892
:100850000030072003F020F9012805462F4C65D110
:10086000294B0220197803F0FEF8204B0520197857
:1008700003F0F9F81E4B0420197803F0F4F822680D
:1008800062B91C4B25601B7802A88DF80020244912
:10089000244AFFF722FC03A8FFF765FD0F4BD3E9BD
:1008A000000103F0C7FFFFF78DFC0D4BD3E90001FA
:1008B00003F0C0FFFFF76AFE0A4B1868FFF7BAFCA7
:1008C0005AE000BFAFF300800000000000C05240BB
:1008D0008C00002068010020100000200001002092
:1008E000F000002064010020040000200800002027
:1008F0000C000020E8000020374C0A082D4C0A08A4
:1009000000405540404C0A0800000020444C0A08B2
:1009100000405040494C0A08534C0A08F800002097
:10092000594C0A08184C0A0884000020144800F0AA
:10093000E6FE134801F060F92368012B0DD1114B3D
:10094000002222601B7802A88DF800200E490F4A71
:10095000FFF7C3FB03A8FFF706FD0122114610466F
:10096000FFF7A8FC012108460022FFF7A3FC0122A3
:1009700000211046FFF79EFC04B0BDE8F08700BFE1
:1009800090000020E8000020594C0A086A4C0A0830
:100990007FB5024613790846956833B13DB90C49D5
:1009A00004B0BDE8704001F0D1BF0A4B00E00A4B33
:1009B000167B0A4C0A49527B012E08BF214602923F
:1009C00001910095074A002102F0C7F804B070BDFC
:1009D000834C0A0870580A08724C0A087B4C0A08B3
:1009E0007F4C0A08994C0A0801F0EABB2DE9F04F48
:1009F0001E4685B0BDF9383015469A1A002AB8BF90
:100A000052420092721A002AB8BF524201920C461A
:100A1000009A019981468A42BDF83CA005DD324624
:100A20001E46134622462C461546B44205DD2A468C
:100A30001D4613462246344616465A1B002AC4EB6E
:100A40000608B8BF52421FFA88F803920FFA88F7D7
:100A500002229D42B4BF01234FF0FF3397FBF2F710
:100A60000293B4421FDC019A009B48469342D9F896
:100A70000030C8BF2246D3F818B0C8BF2946534635
:100A8000DCBF2A462146D847039BFF1ABBB21FB2E0
:100A9000002F05DA029A08EB030715442DB23FB286
:100AA000013424B2DDE705B0BDE8F08F10B404686E
:100AB0002469A44610BC604730B4BDF808500468EF
:100AC0000295A46BA44630BC604730B4BDF8085012
:100AD00004680295E46BA44630BC604770B4BDF96D
:100AE0000C50BDF81060046804960395246CA4466D
:100AF00070BC604770472DE9F3411C461646054619
:100B00000F460368013CBDF820805B693444984778
:100B100024B22B68CDF8048000949C6A28463B469A
:100B200032463946A04728462B68DB6A02B0BDE84A
:100B3000F04118472DE9F341174604461D460E467D
:100B40000368BDF820805B6998478DE880012268C2
:100B50006B1E3344956A20461BB23A463146A8477D
:100B600020462368DB6A02B0BDE8F04118472DE952
:100B7000F3471E4603680C465B6905461746BDF9F8
:100B80002880BDF82C9098472644B4422A680BDA96
:100B9000CDF80090D2F820A0214643463A46284698
:100BA0000134D04724B2F0E72846D36A02B0BDE84A
:100BB000F047184713B5B0F90E2004680191009270
:100BC0000022B0F90C30246C1146A04702B010BDD1
:100BD0002DE9F7439942904607460E461C46BDF95B
:100BE0002850BDF82C9002680BD1A845C2BF4346DF
:100BF000A8461D46CDF828906B1CC8EB0303946BE8
:100C00000BE0A84512D19942C2BF0B4626461C46AE
:100C1000CDF82890631CD46B9B1B42463146384666
:100C2000A4461BB203B0BDE8F04360475369984740
:100C30003B688DE8200238469D6A4246234631468D
:100C4000A84738463B68DB6A03B0BDE8F043184765
:100C50002DE9F34704460D4617461E460368BDF8C6
:100C60002C805B69BDF9289098472368CDF80080F7
:100C7000D3F824A03A46334629462046D047236875
:100C800009F1FF32CDF800803A44D3F824A0294678
:100C90003346204612B2D0472368CDF80080D3F8FF
:100CA00020A03A464B4629462046D0472368711E6D
:100CB000CDF80080294420461D6A3A464B4609B2C9
:100CC000A84720462368DB6A02B0BDE8F047184712
:100CD000704701F00301012981760389428904D01C
:100CE000032902D08381C28170478281C38170470A
:100CF000018181814FF6FF7130B5094D0024428199
:100D0000C281012244600560847604824482427676
:100D10000276C1828182C2760477046230BD00BF50
:100D2000C04C0A082DE9F04F0446174688468BB0A0
:100D30000393BDF80C60BDF85050C6F101031BB21F
:100D40000293C6EBC6335B001BB2069303681FFA1F
:100D500087FB5B699847236806EB0B02D3F8189072
:100D600041462B4612B22046C8472368C6EB0B0209
:100D70004146D3F8189012B22B462046C8471FFAB6
:100D800088F3F118019323683A46D3F8188009B222
:100D90002B462046C047019B3A46991B236809B25F
:100DA0009E6920462B46B04700230593019B0133E3
:100DB0000793019B013B08930BF101030993BDF9D4
:100DC0001430039A934280F28480029B002B0BDB49
:100DD000531E1BB20393069B02339BB21AB20692B8
:100DE000029A13441BB20293BDF81470029B204672
:100DF00003EB470303331BB20293079B07EB030A82
:100E0000BDF80C300FFA8AFA04930BEB0309236840
:100E10000FFA89F9D3F818804A4651462B46C04745
:100E2000089B4A46C7EB030823680FFA88F89B69BA
:100E300041461E4620462B46B047049B5146C3EB15
:100E40000B0923680FFA89F99B694A461E4620461A
:100E50002B46B04723684A46D3F818A041462B4694
:100E60002046D047019B049A204603EB0208099BC9
:100E70000FFA88F807EB030923680FFA89F9D3F80A
:100E800018A04A4641462B46D047019B049A20466B
:100E90009E1A236836B24A46D3F818A031462B462C
:100EA000D0470BF1FF33DF1B23683FB24146D3F835
:100EB00018903A462B462046C84723683A46D3F84E
:100EC000188031462B462046C047059B01330593C9
:100ED00075E720462368DB6A0BB0BDE8F04F184782
:100EE0002DE9F04F89B09A46BDF94C30BDF94890D4
:100EF0000493BDF8503003920593036802915B6937
:100F0000002605469847082309F1070292FBF3FBE8
:100F1000344600960793009A039B13441BB2019337
:100F2000049ABDF900309A4228DD0AEB06034FF01F
:100F3000000806930FFA88F34B451ADA1FFA88F176
:100F40004A0709BF079A640093FBF2F3069A14BF9D
:100F5000E4B2D45C230609D5029B019A19442B689C
:100F600009B29B6928461F46059BB84708F101084E
:100F7000E0E7009B5E4401330093CCE728462B68F2
:100F8000DB6A09B0BDE8F04F184770B4BDF90C40FA
:100F9000BDF91050BDF8146004950596039470BC1B
:100FA000FFF79EBF2DE9F04F91B017469846026AB1
:100FB000BDF86830044603910293BDF86C909DF82B
:100FC00070609DF87450002A40F0B480B0F90C3085
:100FD0008B4240F33B81B0F90E30BB4240F3368187
:100FE000062303FB0613002B40F3308107EBC503F8
:100FF000002B40F32B81037F33B9B8F1AF0F84BFCF
:1010000008F101085FFA88F8236820465B69984771
:10101000052308938F4B08EB880843440C9333B2A5
:101020004FF0000A0B93B2B206920C9BBDF80C2055
:1010300013F80A3004920499069A05931FFA8AF36A
:1010400002FB03120B4412B207921BB20822099250
:101050004FF000080A93059BDA0710D5012E08D13E
:10106000012D06D1236808EB0702D3F818B0029BC4
:1010700012E0029908FB05722368019116E0029BB9
:101080004B451BD0012E0CD1012D0AD1236808EB52
:101090000702D3F818B04B4612B20A992046D84737
:1010A0000CE008FB05722368CDF804900095D3F896
:1010B0001CB012B20B9B07992046D847059B08F13C
:1010C00001085B080593099B4FFA88F8013B13F070
:1010D000FF030993BFD1089B0AF1010A013B13F0FA
:1010E000FF034FFA8AFA08939DD1029B4B4500F00B
:1010F000A680012E23680CD1012D0AD10499CDF8C8
:10110000009005311D6A3A46082309B22046A847D7
:1011100095E0069AED0002EB8201049ACDF8049066
:101120000A4411460095DD693A46334609B2204625
:10113000A84784E0137A5168C3EB080812685FFA85
:1011400088F80D9231F8382001EBC80304929A78A0
:10115000012E0792DA7893F906B00A9293F90520E6
:10116000089201D8012D06D9BDF9203006930FFA57
:101170008BF3059302E00023059306934FF00008DC
:10118000C246C146236820465B699847BBB20993B3
:101190005B440F930A9A5FFA88F393424FD2059A01
:1011A0000999424402FB051212B20C9252460F9961
:1011B00000270B441BB20E93079B9F4238D2531C4F
:1011C000DBB20B93530707D1049B04990D9A0133AB
:1011D0009BB212F80190049319F0800F20D0012ED9
:1011E0000ED1012D0CD1089B039A20469918236833
:1011F0003944D3F818B00E9A029B09B2D8470FE0D1
:10120000069B029AD919039B019201FB06312368C0
:101210000095D3F81CB00C9A334609B22046D84743
:101220004FEA490901375FFA89F9FFB20B9AC3E720
:10123000079B08F101089A445FFA8AFAAAE7204658
:101240002368DB6A11B0BDE8F04F184711B0BDE864
:10125000F08F00BF104D0A08F0B5026A85B0044651
:101260000B46002A2FD10A2905D10282438A427EE9
:1012700003EBC20330E00D296AD0C17E457E007EBB
:1012800069B1B4F91060062101FB0061B4F90C608A
:10129000B142C1BF2282628A02EBC5026282029021
:1012A000E08AB4F912200190A08AB4F910100090DD
:1012B00003952046FFF776FE237E228A03EB430345
:1012C00002EB430343E00A2908D100230382417E55
:1012D000927A438A01FB0233638239E00D2937D0C9
:1012E000157AA94234D3517A994231D351685D1BA2
:1012F000EDB201EBC505A97821B3E87810B3E77E1C
:10130000667E207E8FB195F905703944B4F910706E
:1013100000FB0171B4F90C70B94206DD0021218295
:10132000927A618A06FB021262820290E08AB4F924
:1013300012200190A08AB4F9101000900396204664
:10134000FFF730FE2979227E238A01FB02332382B4
:10135000012005B0F0BD002908BF0121002A08BF07
:1013600001220176427670470A46FFF7F4BF00F08B
:1013700027BF000010B5064B04460360006D08B19E
:1013800000F0C6FF204600F041F8204610BD00BF27
:1013900018520A0810B50446FFF7ECFF2046582102
:1013A00002F03AFC204610BD30B585B004460D462B
:1013B00002F0FEFB094A0A4B4FF0FF318DE80E00A8
:1013C000034620228021204600F09AF82046054B53
:1013D000656523600023236505B030BD801A0600D3
:1013E000A086010018520A0813B50446503000F0D8
:1013F00087FF012300933C220221204600F08CF954
:1014000002B010BD00F0DCBE00F0DABE10B5044B37
:1014100004460360C06A08B101F048F9204610BDD7
:10142000B0520A0810B50446FFF7F0FF20465021DD
:1014300002F0F2FB204610BD002930B55EDBB0F9AA
:101440000C408C425ADD002A58DBB0F90E40944221
:1014500000DC30BD847E022C07D10489013C611A76
:10146000448909B2013CA21A06E0032C3CD10D4686
:1014700044891146013C621B12B2012B03D011D3E7
:10148000022B20D030BD082492FBF4F4B0F90850B0
:1014900002F0070205FB0411C46A9340605C034339
:1014A000635430BD082392FBF3F3B0F9084002F017
:1014B000070204FB0311C46A0120635C00FA02F214
:1014C00023EA02020EE0082392FBF3F3B0F908408E
:1014D00002F0070204FB0311C46A0120635C00FAF6
:1014E00002F25A40625430BD012CC6D151400489E9
:1014F0004A40013C5140611A09B2BEE730BD0000CC
:1015000070B504461E46FFF7F3FB144B002523601D
:10151000656216B902F04CFB00E03046FF2384F808
:10152000333084F8343084F8353084F836309DF91F
:101530001030A06284F83730094BE562A3630123C1
:1015400084F83C30059B2564A364069B84F84450D2
:1015500084F84550E364204670BD00BFB0520A08CD
:1015600070520A08F8B50446806A0F4690B194F9A3
:10157000301002F077F9A06A002103689B68984751
:10158000A06A394603689B689847A06ABDE8F8409E
:1015900002F06FB994F93530014698B202F063FA5F
:1015A000606A20B13946BDE8F84001F06AB9082503
:1015B000802694F9330007EA060180B202F053FA5C
:1015C00094F93400012180B202F04DFA94F934000C
:1015D000002180B202F047FA013D4FEA5606E8D1F9
:1015E000F8BD38B50446806A0D4618B1A16C02F00A
:1015F0002BF90BE0606A18B104F1380101F0D2F860
:1016000094F93600002180B202F02DFA002D204618
:1016100014BFA721A621FFF7A5FFA06A20B1E16CA6
:10162000BDE8384002F010B994F93600012180B2CB
:1016300002F019FA606A18B1BDE8384001F096B8B6
:1016400038BD2DE9F8430446806A0D4601EB0208D7
:1016500048B394F9301002F005F9A06A002103683C
:1016600001269B689847454518D01F2E0DD9A06AC2
:1016700002F0FFF894F93010A06A02F0F3F8A06AC3
:101680000021036801269B689847A06A15F8011B92
:10169000036801369B689847F6B2E4E7A06ABDE8A4
:1016A000F84302F0E6B894F93530014698B202F0FA
:1016B000DAF9454521D0606A15F8019B18B1494611
:1016C00001F0DFF8F5E70826802794F9330009EAEE
:1016D000070180B202F0C7F994F93400012180B209
:1016E00002F0C1F994F93400002180B202F0BBF994
:1016F000013E4FEA5707E8D1DBE7BDE8F883B0F9D0
:101700000A300822073393FBF2F3B0F908200021D6
:101710005A43C06A03F005BA2DE9FF411E46C36A69
:101720000446884615469DF8287073B9B0F90A300A
:101730000820073393FBF0F3B4F90800584300F096
:10174000ADFFE062002800F00E812046FFF7D7FFD2
:10175000B4F90A20B4F90830202A4FF002010DDD57
:10176000523B403A92FBF1F2522093FBF1F14FF0E1
:10177000010C40238DE809107C4B0CE0733B203AB0
:1017800092FBF1F2732093FBF1F14FF0010E202355
:101790008DE80940764B204612B209B2FFF7F5FBFF
:1017A000A06A84F8318080B135B9B4F90A30202BB1
:1017B00014BF3D253C2500E06DB284F83050002F69
:1017C00000F0CD8002F044F82AE094F935000121C0
:1017D00080B202F037F994F93600012180B202F0AC
:1017E00031F994F93600012180B202F03CF9656AC2
:1017F00025B1AFB1284600F0A9FF11E094F93300FC
:10180000012180B202F01EF994F93400012180B266
:1018100002F018F994F93400294680B202F023F955
:10182000FEB194F9370000281BDB012180B202F0E1
:1018300009F994F93700012180B202F014F901206E
:1018400001F0E4F994F93700002180B202F00BF9BD
:101850000A2001F0DBF994F93700012180B202F08F
:1018600002F9A06A18B1A16C01F0EEFF0BE0606A0A
:1018700018B104F1380100F095FF94F93600002109
:1018800080B202F0F0F804223A492046FFF7D9FE70
:10189000A17A20460139C9B2FFF764FE3649042215
:1018A0002046FFF7CEFE94F931302046012B14BFBD
:1018B00014211021FFF756FE042230492046FFF77D
:1018C000C0FEA3682E4A934205D104222D4920462A
:1018D000FFF7B7FE1FE02C4A93420BD12B4903229E
:1018E0002046FFF7AEFE94F93130012B14BFCF2113
:1018F0009F210DE0264A93420DD12649032220461E
:10190000FFF79FFE94F93130012B14BFAF21102156
:101910002046FFF727FED9212046FFF723FE94F942
:1019200031302046012B14BFF1212221FFF71AFE8E
:10193000204606221849FFF784FEA06A18B1E16C20
:1019400001F082FF09E094F93600012180B202F033
:101950008AF8606A08B100F009FF012003E0002E58
:101960007FF45FAF7FE704B0BDE8F08100530A0861
:10197000C0550A0886520A088A520A088E520A0876
:10198000800020007F520A088000400083520A082D
:10199000600010007C520A0892520A0870B5002AB2
:1019A000BDF8105044DBB0F90A40944240DD0029F4
:1019B000BEBF5B181BB20021B0F908605C18B442CE
:1019C000C4BF731A1BB2002B32DD082492FBF4F45F
:1019D00006FB0411C06A02F007020844012101FA63
:1019E00002F28D42D2B203D00CD3022D16D070BDBC
:1019F000013B1BB25D1C1BD010F8011B114300F80A
:101A0000011CF5E7D243D2B2013B1BB25C1C0FD0E4
:101A100010F8011B114000F8011CF5E7013B1BB257
:101A2000591C05D010F8011B514000F8011CF5E7C6
:101A300070BD0000F0B50029BDF81450C0F28880D8
:101A4000B0F908E0714580F28380002ABEBF9B1880
:101A50001BB20022B0F90A40D618A642C4BFA31A8E
:101A60001BB2002B74DDD2B2D4080EFB0411C66A7F
:101A700012F00702DBB206EB01042BD0C2F1080220
:101A8000D2B2344F9342BF5C0DD2C3EB020C4FF085
:101A9000FF0E4EFA0CFE012D0EEA070705D00AD301
:101AA000022D55D10CE0012D04D116F801E047EAD2
:101AB0000E0709E048D216F801E02EEA070703E016
:101AC00016F801E087EA0E079342775440D3B0F945
:101AD00008100C449B1ADBB2072B1CD9022D0BD12A
:101AE0001A462178083AC9432170B0F90810D2B2D9
:101AF000072A0C44F5D81EE0002D14BFFF2600264F
:101B00001A462670083AB0F90810D2B2072A0C44D7
:101B1000F7D803F00703DBB10F4A012DD35C03D0E4
:101B200005D3022D14D10BE0227813430AE022786A
:101B300022EA030306E013F0070309D0064AD35C48
:101B4000227853402370F0BD022DB9D07444C1E710
:101B5000F0BD00BF98520A0874520A0870B4847E1F
:101B6000BDF80C60022C08D0032C0FD0012C18D12A
:101B70000589013DAC1A24B20DE04489013CA41A48
:101B800022B20489611AC91A09B20AE014464289CC
:101B9000D21A511A09B203960A46214670BCFFF7C1
:101BA00049BF039670BCFFF7F9BE30B4847EBDF820
:101BB0000850022C08D0032C0FD0012C18D1048916
:101BC000E41AA21A14B20DE00489013C611A448996
:101BD00009B2A21AD21A12B20AE014464289013A94
:101BE000511A09B202950A46214630BCFFF7D6BE0B
:101BF000029530BCFFF71EBF2DE9F8430446806A0A
:101C000018B1A16C01F020FE0BE0606A18B104F17C
:101C1000380100F0C7FD94F93600002180B201F0D0
:101C200022FF05223F492046FFF70BFD217A20467F
:101C30000139C9B2FFF796FCB4F90A5008230735F9
:101C400095FBF3F52389E66A5D43A06AADB235449E
:101C500040B394F9301001F005FEA06A40210368FA
:101C600001279B689847AE4218D01F2F0DD9A06A54
:101C700001F0FFFD94F93010A06A01F0F3FDA06AB5
:101C80004021036801279B689847A06A16F8011B4A
:101C9000036801379B689847FFB2E4E7A06A01F048
:101CA000E8FD2AE094F93500012180B201F0DBFE65
:101CB000AE4222D0606A16F8019B18B1494600F086
:101CC000E0FDF5E708274FF0800894F9330009EAB2
:101CD000080180B201F0C7FE94F93400012180B2FE
:101CE00001F0C1FE94F93400002180B201F0BBFE86
:101CF000013F4FEA5808E8D1DAE7A06A20B1E16C69
:101D0000BDE8F84301F0A0BD94F93600012180B28E
:101D100001F0A9FE606A18B1BDE8F84300F026BDE5
:101D2000BDE8F883A0520A0800F04ABA03685A686E
:101D3000986812F0010F4FEA620218BF81581B68C1
:101D4000104418BFCB581847F8B590F8293004460E
:101D5000002B40F0998000F0C3FA41F27072A36B3F
:101D6000A063C31A934209D96FF00103E36203230E
:101D700084F82A30012384F82930F8BD94F82A1019
:101D800001F0FF0211B1012A1ED0F8BD402B03D88B
:101D9000A26BD31AA363F8BDA3F17E025D2ADBB266
:101DA000226C04D8511C2164137001236AE00121C4
:101DB00084F829106FF00201E162032184F82A10EF
:101DC000511C21641370F8BDA3F13D015D294FD86A
:101DD00094F836106E2B214491F830204FEA4202DD
:101DE000D2B281F8302008D994F83620224492F8F3
:101DF000301041F0010182F83010226CDBB2511C2E
:101E00002164137094F8353003F0FF004BBB0723B7
:101E100084F8353094F836300133DBB2052B84F882
:101E2000363031D1012184F8291094F8307094F8BB
:101E3000312094F832303A4494F83360134494F8E3
:101E400034503344DBB2AB4204D04FF0FF33E36293
:101E5000032317E00223E06284F82A3084F83C1060
:101E6000F8BD94F83530013BDBB284F83530F8BD6D
:101E7000092B84F8292094BF6FF005026FF003024C
:101E80000323E26284F82A30F8BD022A38B50446FA
:101E900005D0032A0FD0012A11D10B6809E00C20CC
:101EA0000D68FEF7FCF8034618B195E8070083E8D3
:101EB0000700236003E00C21006801F0ADFE002064
:101EC00038BD41648264704738B50446032200235C
:101ED00080F82A2001256FF00602C364C26280F8F0
:101EE000505080F829302946B0F8440001F0AAFD8E
:101EF000B4F84400294601F0B6FDBDE838404FF47F
:101F00007A7000F083BE000070B5044686B000F021
:101F1000EFF994F8503023B9E36CC31AB3F5FA6FB4
:101F20000AD394F82A30032B08D094F82A30022BD5
:101F300004D06FF0040061E002205FE000231A4645
:101F400084F85030E06484F82A30E2540133292BBD
:101F50004FF00005F9D1072384F8305084F8315050
:101F600084F8325084F8335084F8345084F8353093
:101F700000236365A3650121B4F84400246484F858
:101F8000365001F05FFD2946B4F8440001F06BFDC6
:101F9000A36C0B2B03D1122000F038FE03E040F2BB
:101FA000DC5000F095F90021B4F8440001F04AFD3E
:101FB00000F096F90025A06384F829500C20B4F8AD
:101FC00044600495FEF76BF818B10D4B846080E80F
:101FD00028000C4B029005930B4B02220493002324
:101FE000009302A94FF0FF33304601F023FB049B1E
:101FF0001BB102A9032208469847012006B070BD14
:10200000491D0A082D1D0A088B1E0A080000000041
:1020100010B5836C04460B2B30D039DB153B012BFC
:1020200036D890F8300094F8313003EB002080B2BD
:1020300002F0A2F818A3D3E9002302F003F902F09A
:10204000F9FB94F83230606594F8320013F0800F99
:1020500094F833301BBF00F07F0003EB002003EB4C
:102060000020404208BF80B202F086F80AA3D3E9FC
:10207000002302F0E7F802F0DDFB08E090F8300002
:1020800002F0DEFC606594F8320002F0D9FCA06535
:10209000002384F83C3010BD9A9999999999B93FD9
:1020A00090F82A30022B05D090F82A00033818BF88
:1020B000012070470020704710B590F82930044681
:1020C00033B1B0F8440001F06DFA002384F82930F0
:1020D00010BD000010B50446FFF7EEFF94F82A305B
:1020E000032B03D1E06A02F0AFFC10BD94F82A3054
:1020F000022B07D194F83C3013B12046FFF788FF3C
:10210000A06D10BD004810BD0000A0C010B5044671
:10211000FFF7D2FF94F82A30032B03D1E06A02F0D4
:1021200093FC10BD94F82A30022B07D194F83C3070
:1021300013B12046FFF76CFF606D10BD004810BD65
:102140000000A0C0F8B50D460446FFF7DDFE00F024
:10215000CFF807460E4E2046FFF7A2FF58B125B133
:1021600000F0C6F8C01B854205D900F0C1F8306008
:1021700000F074FAEFE72046FFF792FF10B16FF01E
:102180000203E3622046FFF797FFE06AF8BD00BF55
:102190007806002010B504460021FFF7D3FF204643
:1021A000BDE81040FFF796BF10B504460021FFF7C9
:1021B000C9FF2046BDE81040FFF7A8BF00F000B8F7
:1021C00008B5024B1B681B68019308BDB0010608E7
:1021D00008B5024B1B685B68019308BDB001060897
:1021E00008B5024B1B689B68019308BDB001060847
:1021F00008B5024B1B68DB68019308BDB0010608F7
:1022000008B5024B1B681B69019308BDB0010608A5
:1022100008B5024B1B685B69019308BDB001060855
:1022200008B5024B1B689B69019308BDB001060805
:1022300008B5024B1B68DB69019308BDB0010608B5
:1022400008B5024B1B689B6A019308BDB0010608E4
:1022500008B5024B1B689B6F019308BDB0010608CF
:1022600008B5024B1B681B68019308BDB401060842
:1022700008B5024B1B685B69019308BDB4010608F1
:1022800008B5024B1B68DB69019308BDB401060861
:1022900008B5024B1B681B6A019308BDB401060810
:1022A00008B5024B1B685B6A019308BDB4010608C0
:1022B00008B5024B1B68DB6B019308BDB40106082F
:1022C00008B5024B1B685B68019308BD9C010608BA
:1022D00008B5024B1B68DB68019308BD9C0106082A
:1022E00008B5024B1B681B69019308BD9C010608D9
:1022F00008B5024B1B685B69019308BD9C01060889
:1023000008B5024B1B681B6B019308BDD001060882
:1023100008B5024B1B685B6B019308BDD001060832
:1023200008B5024B1B685B6C019308BDD001060821
:1023300008B5024B1B689B6C019308BDD0010608D1
:1023400008B5024B1B68DB6C019308BDD001060881
:1023500008B5024B1B685B6D019308BDD0010608F0
:1023600008B5024B1B689B69019308BDC4010608B0
:1023700008B5024B1B681B6A019308BDC40106081F
:1023800008B5024B1B685B6A019308BDC4010608CF
:1023900008B5024B1B689B6A019308BDC40106087F
:1023A00008B5024B1B68DB6A019308BDC40106082F
:1023B00008B5024B1B681B6B019308BDC4010608DE
:1023C00008B5024B1B685B6B019308BDC40106088E
:1023D00008B5024B1B689B6B019308BDC40106083E
:1023E00008B5024B1B681B6C019308BDC4010608AD
:1023F00008B5024B1B68DB6C019308BDC4010608DD
:1024000008B5024B1B681B6C019308BDAC010608A4
:1024100008B5024B1B68DB6C019308BDAC010608D4
:1024200008B5024B1B689B6D019308BDAC01060803
:1024300008B5024B1B68DB6D019308BDAC010608B3
:1024400008B5024B1B681B6E019308BDAC01060862
:1024500008B5024B1B685B6E019308BDAC01060812
:1024600008B5024B1B689B6E019308BDAC010608C2
:1024700008B5024B1B68DB6E019308BDAC01060872
:1024800008B5024B1B681B6F019308BDAC01060821
:1024900008B5024B1B685B6F019308BDAC010608D1
:1024A00008B5034B1B68D3F88030019308BD0000CA
:1024B000AC01060808B5024B1B681B68019308BDF8
:1024C000D801060808B5024B1B681B69019308BDBB
:1024D000D801060808B5024B1B685B69019308BD6B
:1024E000D801060808B5024B1B689B69019308BD1B
:1024F000D801060808B5024B1B68DB69019308BDCB
:10250000D801060808B5024B1B681B6A019308BD79
:10251000D801060808B5024B1B689B6C019308BDE7
:10252000C001060808B5024B1B685B6B019308BD30
:10253000A801020808B5024B1B685B68019308BD3F
:10254000A401060808B5024B1B685B69019308BD2E
:10255000A401060808B5024B1B68DB6A019308BD9D
:10256000A401060808B5024B1B68DB6C019308BD8B
:10257000A401060808B5024B1B685B6D019308BDFA
:10258000A401060808B5034B1B68D3F890300193EB
:1025900008BD0000A401060808B5034B1B68D3F86A
:1025A0009C30019308BD0000A401060808B5024B49
:1025B0001B685B68019308BDC801060808B5024B9B
:1025C0001B689B68019308BDC801060808B5024B4B
:1025D0001B68DB68019308BDC801060808B5024BFB
:1025E0001B681B69019308BDC801060808B5024BAA
:1025F0001B685B69019308BDC801060808B5024B5A
:102600001B689B69019308BDC801060808B5024B09
:102610001B68DB69019308BDC801060808B5024BB9
:102620001B681B6A019308BDC801060808B5024B68
:102630001B681B6B019308BDC801060808B5024B57
:102640001B685B6B019308BDC801060808B5024B07
:102650001B681B68019308BDCC01060808B5024B36
:102660001B689B68019308BDCC01060808B5024BA6
:102670001B685B69019308BDCC01060808B5024BD5
:102680001B681B6A019308BDCC01060808B5024B04
:102690001B68DB6B019308BDCC01060808B5024B33
:1026A0001B681B68019308BDA001060808B5024B12
:1026B0001B685B68019308BDA001060808B5024BC2
:1026C0001B685B6A019308BDA001060808B5024BB0
:1026D0001B68DB6A019308BDA001060808B5024B20
:1026E0001B681B6B019308BDA001060810B5044BC5
:1026F00004460360C06808B1FFF71AFE204610BD0B
:10270000A8570A0810B50446FFF7F0FF204610212D
:1027100001F082FA204610BD0068FFF711BE006884
:10272000FFF716BE70B504460E46074B0025036042
:1027300040F80C5FFFF7F4FD30462671FFF7A0FD6F
:10274000A560204670BD00BFA8570A0838B50546E9
:1027500000F10C042046FFF7DFFF28794FF6FF71E8
:10276000FFF77EFD2046FFF7DAFF38BD08B50C30D5
:10277000FFF7D5FF08BD0000400830B51860002401
:102780001868E5B2884206D90134082C02D0400806
:102790001860F5E70725024B5B5D137030BD00BF85
:1027A000B0570A082DE9F04380468FB00C300E4632
:1027B000FFF7B2FF98F804401422002109A802F0A4
:1027C000B0F90B232046002209A9ADF82430FFF709
:1027D00067FD9DF82D404CB19DF82C502DB90C9FF4
:1027E0009DF834909DF8354003E00024A14627462B
:1027F000012533790DB1002B3FD19D420BD1B26839
:10280000BA4208D18DF820908DF82140BDF82010F3
:10281000B289914231D03BB1002398F80400019372
:1028200000931A46012116E08DF80F30B16804AB11
:102830000DF10F020A98FFF79FFF317905B1C9B971
:10284000A9420BD000240194747B337B9DF80F20A8
:1028500098F804000094FFF72BFD0EE0B368BB422C
:10286000F0D38DF820908DF82140BDF82020B38959
:102870009A42E7D1049BBB42E4D100200FB0BDE8EF
:10288000F08370B505460E4600F10C042046FFF7B4
:1028900043FF31462879FFF7EBFC05462046FFF75A
:1028A0003EFFE8B270BD0079FFF7F2BC10B50446F8
:1028B000006818B1FFF7FAFE0023236010BD10B5C1
:1028C0000446FFF7F3FF204610BD00004FF6FF73EC
:1028D00010B5084C00202060A080A0712081638189
:1028E000FFF728FE2046BDE81040034A034901F0E7
:1028F00085B900BF6C01002080000020BF280A08B5
:10290000F8B506460D468F180024BD420CD033683A
:1029100015F8011B9B6830469847002801DB0444EA
:10292000F3E7002C08BF04462046F8BD70B5054605
:102930000C46084649B102F040F92B680246214690
:102940002846BDE87040DB68184770BD08B5FFF742
:10295000EDFF08BD03689B68184738B50D21054693
:10296000FFF7F8FF0A2104462846FFF7F3FF20444B
:1029700038BD38B50546FFF7D9FF04462846FFF7AE
:10298000ECFF204438BDFFF7F4BF012A98BF0A22AC
:1029900030B50B468BB000218DF824100DF12304C7
:1029A000B3FBF2F505FB1233DBB2092B94BF3033D6
:1029B0003733DBB2214604F801392B46002DEFD125
:1029C000FFF7B4FF0BB030BD2DE9F0471946804644
:1029D000104617461E469DF8205001F0CDFE08B166
:1029E0004D4912E026F000444FF0FF324B4B384681
:1029F000214601F0C1FE68B94FF0FF32474B38461F
:102A0000214601F09BFE28B945494046FFF78EFF5D
:102A1000BDE8F0874FF06042424B3846314601F046
:102A2000A1FE08B14049F0E74FF060423F4B384605
:102A3000314601F079FE0028F4D100220023384607
:102A4000314601F071FE38B12D214046FFF782FF7B
:102A500006F10046044600E0044635494FF00009FF
:102A600000205FFA89F39D4206D90022314B01F024
:102A700013FD09F10109F4E73A46334601F030FA53
:102A80000F46064601F0B6FE0A2201468146404640
:102A9000FFF77BFF0444E5B3484601F05DFB0246C7
:102AA0000B463046394601F019FA06460F464046B5
:102AB0002149FFF73BFF044400221E4B30463946B4
:102AC00001F0C0FB06460F4601F06CFEB0F1000AB3
:102AD00007DA2D214046FFF73DFFCAF1000181468C
:102AE00002E051464FF000090A224046FFF74DFF31
:102AF00048440444504601F03FFB02460B46304632
:102B0000394601F0EBF9013D15F0FF0506460F4689
:102B1000D2D12046BDE8F087B8570A08FFFFEF7F03
:102B2000C2570A08FFFFEF41BC570A08FFFFEFC179
:102B30000000E03F00002440C0570A0837B50546B2
:102B40001446084601F02AFBE4B2024600940B4604
:102B50002846FFF739FF03B030BD0CB42DE9F04330
:102B600087B000AF07F1380454F8049B05460E46C1
:102B700023464A461421381D3C60FFF79FFD132869
:102B800005D8391D2846FFF7D1FE044613E000F1B1
:102B9000080323F00703E846ADEB030D411C234671
:102BA0004A4668463C60FFF789FD69462846FFF7BC
:102BB000BDFE0446C5461EB12846FFF7CEFE0444BE
:102BC00020461C37BD46BDE8F04302B070470023E5
:102BD0001A4619464068FFF709BD0B68036013B138
:102BE0005A6801325A607047014A024B1A607047B6
:102BF0003C580A0878010020024B1A68024B1A6000
:102C0000704700BF140000207C0100200021FFF766
:102C100099BC10B58368044613B103220146984756
:102C2000204610BD10B50446FFF7F3FF204610BD47
:102C300013B50B46044603C88DE8030093E8030070
:102C400084E803009DE8030083E8030002B010BDA0
:102C5000034800238360034A034900F0CFBF00BF4D
:102C60008001002080000020252C0A0808B5144BA4
:102C700033B100F02BFC03681B699847002816DC71
:102C8000104B33B100F068FD03681B6998470028BA
:102C900010DC0D4B0BB1AFF300800C4B7BB100F09F
:102CA00051FC03681B699847002806DC08BDAFF398
:102CB0000080E5E7AFF30080EBE7AFF3008008BDED
:102CC0000000000000000000000000000000000004
:102CD00008B5FFF7CBFFFFF70BFB014B186008BDF2
:102CE000780600200248034A0349121A01F00EBF79
:102CF0000040024004400240A05A0A0807B50023E1
:102D000000931A466FF07701FFF746FC03B05DF8B9
:102D100004FB000007B543880A2B08D0502B09D1CB
:102D2000094B1B683BB103B05DF804EB1847FFF794
:102D3000E5FF06E0002300931A466FF07701FFF7E6
:102D40002BFC03B05DF804FB9001002038B5104C5B
:102D5000104D2368AB42104B0CBF012200221A70A9
:102D600002D0FFF7BFFF2560FFF7AAFA044601F083
:102D7000E1FE0A4B13B12046AFF300800021074863
:102D8000FFF784FCBDE8384000210548FFF7FABB97
:102D9000004002401E1C279A940100200000000001
:102DA000152D0A0870470020704710B50446102101
:102DB00000F032FF204610BD08B508B1FFF7F5FF5F
:102DC00008BD002202604FF69C72828010B5B1F9F6
:102DD000044084808A8002680C6804600A6010BD28
:102DE00010B504460068FFF761FC204610BD38B5F9
:102DF000C468F4B12378022B03D104F10C00FFF76F
:102E0000EFFF656835B12846FFF703FF102128461C
:102E100000F002FFA56835B12846FFF7FAFE102141
:102E2000284600F0F9FE2046BDE83840142100F0A5
:102E3000F3BE38BD13B5044691E8050000234B608E
:102E40000B602060626001A801930093FDF78BFA8C
:102E5000204602B010BDF7B50C4606460F4654F8A2
:102E6000043B02AD45F8083D214601A8FFF7B5FE39
:102E700029463046FFF7DEFF01A8FDF774FA204629
:102E8000FDF771FA3846082100F0C6FE304603B05F
:102E9000F0BD000038B500230446036010200D4645
:102EA000FDF7FDF828B1012343608360024BC56044
:102EB00003602060204638BDDC580A08826810B5DF
:102EC0000AB900F0BCFEC368BDE81040184708B559
:102ED000006800F11001FFF7F1FF08BD826810B52E
:102EE0000AB900F0ACFEC368BDE81040184708B549
:102EF000006800F11001FFF7F1FF08BD38B50023AD
:102F000083608B6804460D462BB102229847EB681C
:102F1000E360AB68A360204638BD0000F0B589B01F
:102F200004686846FFF74DFF4FF0020200238DF85A
:102F30000830D4E84F3F002B03D1C4E8412F0029CB
:102F4000F7D102D08DF8083063E014F10C0503D0FE
:102F500069462846FFF735FFBFF35F8F0123637093
:102F6000BFF35F8F04F10803002053E8006F43E8CC
:102F70000002002AF9D1BFF35F8F002E49D0FFF77E
:102F8000F1FA20B129463046FFF798FF3AE0314682
:102F900002A8FFF7B3FFE068B4F9105008B101F0E0
:102FA000F1FD06901020ADF81C50FDF778F80546AD
:102FB000E8B1002787601820FDF771F8044688B152
:102FC0000146876002A8FFF733FE049BA268A36056
:102FD000059B0492E26806A9E36004F110000592E3
:102FE000FFF7EFFE0D4B2C60EB600D4BAB6006A8BE
:102FF000FFF7F6FE02A8FFF70CFE0022294609485B
:10300000FFF7B8FA3046FFF704FE1021304600F013
:1030100003FE6846FFF7E4FE09B0F0BDCF2E0A08B4
:1030200045310A08A5370A082DE9F04F8BB006464E
:103030000F46904699469DF850A0FFF717FB07AD45
:10304000834630BB4FF62E73059005A92846ADF890
:103050001830FFF7B6FE1420FDF721F8044658B1EA
:103060000223037001234370C0F804B0C0F808B015
:1030700029460C30FFF7A5FE3046214640F8044BA8
:10308000FFF708FF2846FFF7ABFE05A8FFF7A8FEED
:1030900052E000240C2314206C60AC600793FCF712
:1030A000FEFF014618B1047044704460846004A8B7
:1030B0000391FFF7EFFE224B08200893FCF7EFFF88
:1030C000044628B1039B04A940F8043BFFF785FDA3
:1030D00000955FFA8AF34A46414638460994FFF75D
:1030E000CDFA20B9039B5B7803F0FF0283B1039B09
:1030F00004A906A80593FFF770FD05A93046FFF760
:1031000099FE06A8FDF72FF904A8FDF72CF913E0A6
:103110004FF69C7305A903A80592ADF81830FFF788
:10312000FDFE05A8FFF75CFE05A80999FFF793FED1
:1031300006A8FDF718F9DAE730460BB0BDE8F08FC6
:10314000B5320A08022AF8B5044606D0032A17D079
:10315000012A22D10B6803601FE018200E68FCF7DB
:103160009EFF054650B13146FFF7C8FE3069B6F9FB
:10317000147008B101F006FD2861AF8225600CE0F3
:10318000046854B104F11000FFF72AFE2046FFF74F
:1031900040FD1821204600F03FFD0020F8BD38B565
:1031A000002383608B6804460D462BB102229847AA
:1031B000EB68E360AB68A360204638BD022A70B5B7
:1031C000044606D0032A11D0012A18D10B680360E7
:1031D00015E014200E68FCF762FF054620B1314669
:1031E000FFF7DDFF337C2B74256008E0046834B101
:1031F0002046FFF70EFD1421204600F00DFD0020B3
:1032000070BD0000F0B50C46BFF35F8F87B00023A0
:1032100050E8006F40E80032002AF9D1BFF35F8F19
:10322000002E3FD01846FFF79DF9074620B12146F2
:103230003046FFF753FE2EE0314601A8FFF7AFFFFF
:10324000237810208DF81430FCF729FF0546D0B103
:1032500087601420FCF723FF044678B1876001469D
:1032600001A8FFF7E5FC039BA268A360049B0392FF
:10327000E268E3609DF81430049223740A4B2C60DA
:10328000EB600A4BAB6001A8FFF7C3FC00222946A4
:103290000748FFF76FF93046FFF7BBFC10213046B7
:1032A00000F0BAFC07B0F0BDEF2E0A08BD310A08E5
:1032B000A5370A0830B5044685B00D466846114664
:1032C000FFF7C9FD7CB124B228460DB101F05AFCCC
:1032D000029002A96846ADF80C40FFF71FFE02A855
:1032E000FFF77EFD1DE04FF0010200988DF80840C9
:1032F000D0E84F3FA34203D1C0E8412F0029F7D1C6
:1033000002D08DF808300CE010F10C014FF00103F1
:1033100018BF0373BFF35F8F043000F8033CFFF75F
:1033200071FF01A8FDF71FF805B030BD704710B55B
:103330000446182100F070FC204610BDF8B50F4679
:1033400000F10806051D002416F8011D0A22384662
:10335000FFF71BFBAE42044407D0002CF4D02E2113
:103360003846FFF7F7FA0444EEE72046F8BD0000C0
:1033700010B50446044B112240F8043B002101F033
:10338000D0FB204610BD00BFF8580A080346074A84
:1033900010B543F8042B01F1100251F8044B91428F
:1033A00043F8044BF9D10A781A7010BDF8580A088E
:1033B000024A41600260042202757047F8580A0808
:1033C00010B59DF8084044EA032343EA024242EA6A
:1033D000016104234160037510BD000037B5044D41
:1033E00005609DF818500095FFF7EAFF03B030BD67
:1033F000F8580A0841747047704708B50021007CEE
:10340000FFF770F830EA200028BF4FF0FF3008BD0A
:1034100008B50121007CFFF765F830EA200028BFDD
:103420004FF0FF3008BD08B5007CFFF753F820EAE5
:10343000E07008BD08B5007CFFF744F820EAE070B2
:1034400008BD007CFFF75EB810B50446142100F0FB
:10345000E3FB204610BD38B50446007C0D46FFF75F
:1034600039F8002801DC607C28B12946207CFFF770
:1034700041F820EAE07038BD10B5044600236360CF
:103480004FF47A73A360054B08462360012321742F
:1034900063741146FFF70EF8204610BD0C590A0858
:1034A00010B504461422002101F03BFB054B2046D9
:1034B0006360054BE36040F2011323818123238283
:1034C00010BD00BF1D0200209C01002030B50E4D34
:1034D00087B001A8FFF7E4FF296811F0010410D1BB
:1034E0002846FCF7EBFD60B101AA21460748FFF72B
:1034F000C3FF2846FCF7E7FD054A0649034800F0EC
:103500007DFB024807B030BD980100202003002059
:1035100080000020F9330A0810B504461422002167
:1035200001F0FFFA054B20466360054BE36040F273
:10353000011323818123238210BD00BFD00300200B
:103540003803002010B50E4C86B001A8FFF7E4FF49
:103550002368DB0710D42046FCF7B0FD60B101AA58
:1035600001210848FFF788FF2046FCF7ACFD064A1A
:103570000649044800F042FB024806B010BD00BFF7
:1035800034030020BC03002080000020F9330A0827
:10359000826810B50AB900F052FBC368BDE810405C
:1035A00018470000F8B50646FEF742FE074668B920
:1035B000084D55F826405CB12046FFF72AFB102144
:1035C000204600F029FB45F8267001E00020F8BDF8
:1035D0000120F8BDD404002038B5002383608B6837
:1035E00004460D462BB102229847EB68E360AB68B6
:1035F000A360204638BD0000F8B50D4B064653F8D1
:1036000020500F461C4635B12846FFF702FB10211B
:10361000284600F001FB1020FCF741FD054610B1E3
:103620003946FFF7D9FF44F826502846F8BD00BFB9
:10363000D4040020F0B50C46054685B017461E465A
:10364000FEF7F6FD21462846FFF7D6FF0446D0B127
:10365000002104238E4203918DF80C30B4BF0B4639
:103660009DF828300246A4BF8DF80E3003AB0093BE
:1036700007493B462846A8BF8DF80D60FEF7D0FDF0
:1036800008B1002002E0201C18BF012005B0F0BDE9
:1036900091350A0870474174704708B5007CFEF701
:1036A0009FFE20EAE07008BD08B5007CFEF770FEC2
:1036B00020EAE07008BD08B5007CFEF779FE30EA2C
:1036C000200028BF4FF0FF3008BD08B5007CFEF792
:1036D00067FE30EA200028BF4FF0FF3008BD007CB5
:1036E000FEF76EBE10B50446142100F095FA204690
:1036F00010BD70B5457C04460E4625B9007CFEF72A
:103700006FFE002805DD3146207CBDE87040FEF7E5
:1037100037BE284670BD000010B504460846114665
:10372000002262604FF47A72A260054A207422601F
:10373000012262741A46FEF713FE204610BD00BF38
:103740003C590A080023007CFEF752BE007CFEF7BD
:103750000FBE007CFEF73CBE38B50C4D296811F059
:10376000010411D12846FCF7A9FC68B1084A21469A
:10377000084B0948FFF7D0FF2846FCF7A4FC074A8E
:103780000749054800F03AFA034838BDCC05002047
:10379000D0050020480500203405002080000020CE
:1037A00095360A0810B5836804460BB900F047FA4D
:1037B000C3689847A3681BB1032221462046984757
:1037C0002046BDE81040102100F026BA7047F8B539
:1037D000064615460C468F18BC4206D0336814F8CE
:1037E000011B9B6830469847F6E72846F8BD002243
:1037F000007CFEF725BE0021007CFEF729BE0021DB
:10380000007CFEF72DBE0021007CFEF731BE0021BA
:10381000007CFEF735BE10B50446142100F0FCF91B
:10382000204610BD10B50446002363604FF47A7340
:10383000A360044B2174084623601146FEF730FE56
:10384000204610BD6C590A080022007CFEF7D8BD46
:1038500000231A461946007CFEF7DABD0022007CE0
:10386000FEF7DEBDC9B2FFF7F9BF0022007CFEF70C
:10387000DFBD0121FFF7F9BF0021007CFEF708BE84
:10388000002211464068FEF7A9BEF0B5164689B081
:1038900011220F460446002103A801F042F93046E8
:1038A00001F08BF90025009581B27B6803AA3046B0
:1038B000FEF730FE20B129462046FFF779FD03E0F0
:1038C00003A92046FFF762FD204609B0F0BD0022A3
:1038D00011464068FEF7A2BE002211464068FEF77E
:1038E000ADBE00224068FEF7A1BE002281F00101BA
:1038F0004068FEF78BBE00231A4619464068FEF763
:103900007DBE002211464068FEF758BE002202210B
:103910004068FEF75BBE00231A464068FEF746BECD
:10392000024B04225A60024A1A6070475406002073
:1039300094590A0800231A464068FEF737BE002251
:1039400002214068FEF742BE002211464068FEF7A1
:1039500035BE002211464068FEF740BE00231A46DD
:1039600019464068FEF742BE00231A4619464068D1
:10397000FEF744BE002281F001014068FEF746BE1A
:1039800000224068FEF752BE002211464068FEF752
:1039900055BE002211464068FEF740BE70B516467F
:1039A0008EB0044608A8FFF7E3FC1122002103A80B
:1039B00001F0B7F8304601F000F900250A4B0095F8
:1039C00081B25B6803AA3046FEF7A4FD20B1294608
:1039D0002046FFF7EDFC03E003A92046FFF7D6FCE5
:1039E00020460EB070BD00BF54060020024B034AB3
:1039F0001A6000225A6070475C060020C8590A0805
:103A000010B5044600F082F8FEF74DFF28B1A4F18E
:103A10000D03022B01D8002010BD00F0C9F8FFF7FC
:103A20002BFF08B1012CF6D9FFF796FEFFF791FEA8
:103A300018B1A4F11203012BEDD9172C8CBF002073
:103A4000012010BD172838B504460D460AD8FF29B5
:103A500008D0FFF7D5FF28B129462046BDE83840F9
:103A6000FEF7BEBB38BD38B504460D46FEF7C0FBB9
:103A7000FF2810D0062804D84D2323FA00F0C307EE
:103A800009D42046FFF7BCFF28B129462046BDE8EF
:103A90003840FEF7B5BB38BD10B50446FEF7A8FBAD
:103AA0000438C0B2012808D92046FFF7A9FF20B189
:103AB0002046BDE81040FEF7ABBB002010BD38B576
:103AC00004460D46FFF79CFFF0B104212046FEF7A7
:103AD0007FFB042805D1A9B22046BDE83840FEF797
:103AE000AFBB02212046FEF773FB02280CD1204613
:103AF000FEF77EFB012801D0042805D12946204687
:103B0000BDE83840FEF7A4BB38BD000038B50B4D0A
:103B1000296811F001040FD12846FCF7CFFA58B1FB
:103B200021460748FEF7FEFD2846FCF7CCFA054A79
:103B30000549034800F062F8014838BD74060020CA
:103B40006406002080000020ED260A0813B5084C0A
:103B500000231A46194600932046FFF73FFC2046F3
:103B6000044A054902B0BDE8104000F047B800BF64
:103B70007C060020800000202D330A0870B5044622
:103B800014252A46094E002100F0CBFF2580202570
:103B90003146A5602561284600F040F83146606056
:103BA000284600F03BF8E060204670BDF4590A0852
:103BB00030B50E4D87B0296811F0010413D12846A5
:103BC000FCF77CFA78B101A8FFF7D8FF01AA2146DB
:103BD0000748FFF727FE2846FCF775FA054A06490D
:103BE000034800F00BF8024807B030BD94060020EF
:103BF0009806002080000020CD370A080B460146B9
:103C0000184600F075BF0000024B1868BFF35F8FC5
:103C1000704700BFAC060020FCF743BA00F000B8C4
:103C200010B5002814BF044601242046FEF736FDD7
:103C300020B9FFF7E9FF08B18047F6E710BD08B5E6
:103C4000FEF744FD184B1A68D1075CBF01221A60C9
:103C5000164B1A68D2075CBF01221A60144B1A680F
:103C6000D0075CBF01221A60124B1A68D1075CBFF3
:103C700001221A60104B1A68D2075CBF01221A6039
:103C80000E4B1A68D0075CBF01221A600C4B1A68F1
:103C9000D1075CBF01221A600A4B1A68D2075CBFC9
:103CA00001221A60704700BFCC060020C806002021
:103CB000C4060020C0060020BC060020B806002074
:103CC000B4060020B0060020244B1A68D0075CBF61
:103CD00001221A60224B1A68D1075CBF01221A60C8
:103CE000204B1A68D2075CBF01221A601E4B1A686B
:103CF000D0075CBF01221A601C4B1A68D1075CBF59
:103D000001221A601A4B1A68D2075CBF01221A609E
:103D1000184B1A68D0075CBF01221A60164B1A684C
:103D2000D1075CBF01221A60144B1A68D2075CBF2E
:103D300001221A60124B1A68D0075CBF01221A6078
:103D4000104B1A68D1075CBF01221A600E4B1A682B
:103D5000D2075CBF01221A60704700BFFC0600203A
:103D6000F8060020F4060020F0060020EC060020F3
:103D7000E8060020E4060020E0060020DC06002023
:103D8000D8060020D4060020D0060020244B1A6854
:103D9000D0075CBF01221A60224B1A68D1075CBFB2
:103DA00001221A60204B1A68D2075CBF01221A60F8
:103DB0001E4B1A68D0075CBF01221A601C4B1A68A0
:103DC000D1075CBF01221A601A4B1A68D2075CBF88
:103DD00001221A60184B1A68D0075CBF01221A60D2
:103DE000164B1A68D1075CBF01221A60144B1A687F
:103DF000D2075CBF01221A60124B1A68D0075CBF61
:103E000001221A60104B1A68D1075CBF01221A60A8
:103E10000E4B1A68D2075CBF01221A60704700BFC0
:103E20002C0700202807002024070020200700205E
:103E30001C0700201807002014070020100700208E
:103E40000C070020080700200407002000070020BE
:103E5000184B1A68D1075CBF01221A60164B1A680A
:103E6000D2075CBF01221A60144B1A68D0075CBFEE
:103E700001221A60124B1A68D1075CBF01221A6036
:103E8000104B1A68D2075CBF01221A600E4B1A68E9
:103E9000D0075CBF01221A600C4B1A68D1075CBFC7
:103EA00001221A600A4B1A68D2075CBF01221A600D
:103EB000704700BF4C07002048070020440700203F
:103EC000400700203C07002038070020340700206E
:103ED0003007002081F0004102E000BF83F0004382
:103EE00030B54FEA41044FEA430594EA050F08BF95
:103EF00090EA020F1FBF54EA000C55EA020C7FEA59
:103F0000645C7FEA655C00F0E2804FEA5454D4EBD5
:103F10005555B8BF6D420CDD2C4480EA020281EA9F
:103F2000030382EA000083EA010180EA020281EAD7
:103F30000303362D88BF30BD11F0004F4FEA013129
:103F40004FF4801C4CEA113102D0404261EB410138
:103F500013F0004F4FEA03334CEA133302D05242BE
:103F600063EB430394EA050F00F0A780A4F101047A
:103F7000D5F1200E0DDB02FA0EFC22FA05F28018B4
:103F800041F1000103FA0EF2801843FA05F359419A
:103F90000EE0A5F120050EF1200E012A03FA0EFC19
:103FA00028BF4CF0020C43FA05F3C01851EBE37143
:103FB00001F0004507D54FF0000EDCF1000C7EEB60
:103FC00000006EEB0101B1F5801F1BD3B1F5001F9E
:103FD0000CD349085FEA30004FEA3C0C04F10104BD
:103FE0004FEA445212F5800F80F09A80BCF1004FE6
:103FF00008BF5FEA500C50F1000041EB045141EA68
:10400000050130BD5FEA4C0C404141EB010111F468
:10401000801FA4F10104E9D191F0000F04BF014613
:104020000020B1FA81F308BF2033A3F10B03B3F1F1
:1040300020020CDA0C3208DD02F1140CC2F10C0281
:1040400001FA0CF021FA02F10CE002F11402D8BFDF
:10405000C2F1200C01FA02F120FA0CFCDCBF41EAAB
:104060000C019040E41AA2BF01EB0451294330BD7A
:104070006FEA04041F3C1CDA0C340EDC04F1140457
:10408000C4F1200220FA04F001FA02F340EA03002E
:1040900021FA04F345EA030130BDC4F10C04C4F174
:1040A000200220FA02F001FA04F340EA0300294654
:1040B00030BD21FA04F0294630BD94F0000F83F49E
:1040C000801306BF81F480110134013D4EE77FEA81
:1040D000645C18BF7FEA655C29D094EA050F08BFCD
:1040E00090EA020F05D054EA000C04BF19461046AE
:1040F00030BD91EA030F1EBF0021002030BD5FEAF2
:10410000545C05D14000494128BF41F0004130BD19
:1041100014F580043CBF01F5801130BD01F000456D
:1041200045F0FE4141F470014FF0000030BD7FEAE0
:10413000645C1ABF194610467FEA655C1CBF0B46DB
:10414000024650EA013406BF52EA033591EA030FF2
:1041500041F4002130BD00BF90F0000F04BF0021EA
:10416000704730B54FF4806404F132044FF000051D
:104170004FF0000150E700BF90F0000F04BF002196
:10418000704730B54FF4806404F1320410F00045FC
:1041900048BF40424FF000013EE700BF42004FEAF7
:1041A000E2014FEA31014FEA02701FBF12F07F4374
:1041B00093F07F4F81F06051704792F0000F14BF71
:1041C00093F07F4F704730B54FF4607401F00045B5
:1041D00021F0004120E700BF50EA010208BF70470C
:1041E00030B54FF000050AE050EA010208BF704701
:1041F00030B511F0004502D5404261EB41014FF46A
:10420000806404F132045FEA915C3FF4DCAE4FF06D
:1042100003025FEADC0C18BF03325FEADC0C18BF54
:10422000033202EBDC02C2F1200300FA03FC20FAA5
:1042300002F001FA03FE40EA0E0021FA02F11444F2
:10424000C1E600BF70B54FF0FF0C4CF4E06C1CEA07
:1042500011541DBF1CEA135594EA0C0F95EA0C0F7C
:1042600000F0DEF82C4481EA030621EA4C5123EAEF
:104270004C5350EA013518BF52EA033541F480111E
:1042800043F4801338D0A0FB02CE4FF00005E1FBD1
:1042900002E506F00042E0FB03E54FF00006E1FB1B
:1042A00003569CF0000F18BF4EF0010EA4F1FF045E
:1042B000B6F5007F64F5407404D25FEA4E0E6D419E
:1042C00046EB060642EAC62141EA55514FEAC520AF
:1042D00040EA5E504FEACE2EB4F1FD0C88BFBCF52B
:1042E000E06F1ED8BEF1004F08BF5FEA500E50F1DC
:1042F000000041EB045170BD06F0004646EA0101A2
:1043000040EA020081EA0301B4EB5C04C2BFD4EBD3
:104310000C0541EA045170BD41F480114FF0000ECC
:10432000013C00F3AB8014F1360FDEBF002001F03A
:10433000004170BDC4F10004203C35DA0C341BDCB4
:1043400004F11404C4F1200500FA05F320FA04F086
:1043500001FA05F240EA020001F0004221F00041BA
:1043600010EBD37021FA04F642EB06015EEA430E2D
:1043700008BF20EAD37070BDC4F10C04C4F120055D
:1043800000FA04F320FA05F001FA04F240EA020010
:1043900001F0004110EBD37041F100015EEA430EE1
:1043A00008BF20EAD37070BDC4F1200500FA05F201
:1043B0004EEA020E20FA04F301FA05F243EA020380
:1043C00021FA04F001F0004121FA04F220EA02008F
:1043D00000EBD3705EEA430E08BF20EAD37070BDD5
:1043E00094F0000F0FD101F00046400041EB0101B5
:1043F00011F4801F08BF013CF7D041EA060195F097
:10440000000F18BF704703F00046520043EB030350
:1044100013F4801F08BF013DF7D043EA060370473D
:1044200094EA0C0F0CEA135518BF95EA0C0F0CD048
:1044300050EA410618BF52EA4306D1D181EA03018E
:1044400001F000414FF0000070BD50EA410606BF88
:104450001046194652EA430619D094EA0C0F02D1CD
:1044600050EA013613D195EA0C0F05D152EA033612
:104470001CBF104619460AD181EA030101F0004130
:1044800041F0FE4141F470014FF0000070BD41F079
:10449000FE4141F4780170BD70B54FF0FF0C4CF453
:1044A000E06C1CEA11541DBF1CEA135594EA0C0F72
:1044B00095EA0C0F00F0A7F8A4EB050481EA030EBF
:1044C00052EA03354FEA013100F088804FEA0333A6
:1044D0004FF0805545EA131343EA12634FEA022274
:1044E00045EA111545EA10654FEA00260EF0004135
:1044F0009D4208BF964244F1FD0404F5407402D287
:104500005B084FEA3202B61A65EB03055B084FEA17
:1045100032024FF480104FF4002CB6EB020E75EB14
:10452000030E22BFB61A754640EA0C005B084FEA3C
:104530003202B6EB020E75EB030E22BFB61A7546B9
:1045400040EA5C005B084FEA3202B6EB020E75EB04
:10455000030E22BFB61A754640EA9C005B084FEA7C
:104560003202B6EB020E75EB030E22BFB61A754689
:1045700040EADC0055EA060E18D04FEA051545EA78
:1045800016754FEA06164FEAC30343EA52734FEA21
:10459000C2025FEA1C1CC0D111F4801F0BD141EA9A
:1045A00000014FF000004FF0004CB6E711F4801FFF
:1045B00004BF01430020B4F1FD0C88BFBCF5E06FDF
:1045C0003FF6AFAEB5EB030C04BFB6EB020C5FEAEF
:1045D000500C50F1000041EB045170BD0EF0004E44
:1045E0004EEA113114EB5C04C2BFD4EB0C0541EA76
:1045F000045170BD41F480114FF0000E013C90E673
:1046000045EA060E8DE60CEA135594EA0C0F08BF36
:1046100095EA0C0F3FF43BAF94EA0C0F0AD150EA35
:1046200001347FF434AF95EA0C0F7FF425AF1046C8
:1046300019462CE795EA0C0F06D152EA03353FF4F0
:10464000FDAE1046194622E750EA410618BF52EA6D
:1046500043067FF4C5AE50EA41047FF40DAF52EA41
:1046600043057FF4EBAE12E74FF0FF3C06E000BFDE
:104670004FF0010C02E000BF4FF0010C4DF804CDEB
:104680004FEA410C7FEA6C5C4FEA430C18BF7FEAAB
:104690006C5C1BD001B050EA410C0CBF52EA430CD9
:1046A00091EA030F02BF90EA020F0020704710F159
:1046B000000F91EA030F58BF994208BF90422CBFE8
:1046C000D8176FEAE37040F0010070474FEA410CE1
:1046D0007FEA6C5C02D150EA013C07D14FEA430CFF
:1046E0007FEA6C5CD6D152EA033CD3D05DF8040B70
:1046F000704700BF8446104662468C4619466346A2
:1047000000E000BF01B5FFF7B7FF002848BF10F178
:10471000000F01BD4DF808EDFFF7F4FF0CBF0120BD
:1047200000205DF808FB00BF4DF808EDFFF7EAFF39
:1047300034BF012000205DF808FB00BF4DF808EDF4
:10474000FFF7E0FF94BF012000205DF808FB00BFE9
:104750004DF808EDFFF7CEFF94BF012000205DF873
:1047600008FB00BF4DF808EDFFF7C4FF34BF012080
:1047700000205DF808FB00BF4FEA410C7FEA6C5C4B
:1047800002D150EA013C0AD14FEA430C7FEA6C5C4B
:1047900002D152EA033C02D14FF0000070474FF0C3
:1047A000010070474FEA410212F5001215D211D5EF
:1047B0006FF47873B3EB625212D94FEAC12343F01E
:1047C000004343EA505311F0004F23FA02F018BFA0
:1047D000404270474FF00000704750EA013005D169
:1047E00011F0004008BF6FF0004070474FF000002C
:1047F000704700BF4A0011D212F5001211D20DD538
:104800006FF47873B3EB62520ED44FEAC12343F0D6
:10481000004343EA505323FA02F070474FF0000080
:10482000704750EA013002D14FF0FF3070474FF02F
:10483000000070474FEA4102B2F1E04324BFB3F5F4
:10484000001CDCF1FE5C0DD901F0004C4FEAC00207
:104850004CEA5070B2F1004F40EB830008BF20F0EB
:104860000100704711F0804F21D113F13872BCBFA5
:1048700001F00040704741F480114FEA5252C2F1FA
:104880001802C2F1200C10FA0CF320FA02F018BF43
:1048900040F001004FEAC1234FEAD32303FA0CFC96
:1048A00040EA0C0023FA02F34FEA4303CCE77FEA25
:1048B000625307D150EA01331EBF4FF0FE4040F46F
:1048C0004000704701F0004040F0FE4040F400001E
:1048D000704700BF80F0004002E000BF81F000415F
:1048E00042001FBF5FEA410392EA030F7FEA226C96
:1048F0007FEA236C6AD04FEA1262D2EB1363C1BF26
:10490000D218414048404140B8BF5B42192B88BF94
:10491000704710F0004F40F4000020F07F4018BFB7
:10492000404211F0004F41F4000121F07F4118BFD7
:10493000494292EA030F3FD0A2F1010241FA03FC7F
:1049400010EB0C00C3F1200301FA03F100F0004367
:1049500002D5494260EB4000B0F5000F13D3B0F12F
:10496000807F06D340084FEA310102F10102FE2A9E
:1049700051D2B1F1004F40EBC25008BF20F001000E
:1049800040EA03007047490040EB000010F4000FBC
:10499000A2F10102EDD1B0FA80FCACF1080CB2EB4F
:1049A0000C0200FA0CF0AABF00EBC25052421843AE
:1049B000BCBFD0401843704792F0000F81F4000153
:1049C00006BF80F400000132013BB5E74FEA410326
:1049D0007FEA226C18BF7FEA236C21D092EA030F92
:1049E00004D092F0000F08BF0846704790EA010F0C
:1049F0001CBF0020704712F07F4F04D1400028BF39
:104A000040F00040704712F100723CBF00F500001A
:104A1000704700F0004343F0FE4040F40000704750
:104A20007FEA226216BF08467FEA236301464202FC
:104A300006BF5FEA412390EA010F40F4800070470F
:104A40004FF0000304E000BF10F0004348BF4042B5
:104A50005FEA000C08BF704743F0964301464FF0F1
:104A600000001CE050EA010208BF70474FF000034D
:104A70000AE000BF50EA010208BF704711F000438E
:104A800002D5404261EB41015FEA010C02BF84465E
:104A90000146002043F0B64308BFA3F18053A3F5BD
:104AA0000003BCFA8CF2083AA3EBC25310DB01FA04
:104AB00002FC634400FA02FCC2F12002BCF1004F88
:104AC00020FA02F243EB020008BF20F00100704719
:104AD00002F1200201FA02FCC2F1200250EA4C006D
:104AE00021FA02F243EB020008BF20EADC707047B3
:104AF00010B5054C13462CB10A4601460220AFF30F
:104B0000008010BD204610BD0000000010B5431EFF
:104B10000A44914204D011F8014B03F8014FF8E721
:104B200010BD03460244934202D003F8011BFAE78A
:104B30007047000038B5124B05461C68A36BD3B90B
:104B40001820FDF7ABFD43F20E33A06303804AF655
:104B5000CD33438041F2342383804EF26D63C380B2
:104B60004DF6EC630381052343810B2383810122EE
:104B70000023C0E90423A36B00221D615A6138BDE4
:104B800078000020024B0146186800F003B800BF0F
:104B90007800002070B5064608460C4600F00DF877
:104BA000451C29463046FDF799FD064618B12A46B0
:104BB0002146FFF7ABFF304670BD034613F8012BCB
:104BC000002AFBD1181A01387047000021000A089A
:104BD00061000A088D000A0891000A080000000020
:104BE000FF018600000000007954656D70657261F8
:104BF00074757265203A2000204300434F32203AFA
:104C0000200070706D0074656D700068756D69646A
:104C100069747900434F320070726573656E636525
:104C20000048756D6964697465203A200064617498
:104C3000614572726F72006E6577537461746500BE
:104C400072656400626C7565006C69676874426CBB
:104C5000756500677265656E004D6F74696F6E2DC6
:104C6000446574656374696F6E00616273656E6339
:104C7000650064656661756C7420004D5342004C9C
:104C80005342003C53504953657474696E677320F6
:104C900064656661756C743E003C5350495365749D
:104CA00074696E6773202573256C75202573204DFC
:104CB0004F444525643E0000000000000000000055
:104CC000000000000000000059120A0801290A082B
:104CD000A9000A08F50A0A08AD0A0A08DD0A0A0846
:104CE000B90A0A08CB0A0A08ED090A08F50A0A08EF
:104CF000D30C0A08D10C0A08F70A0A08350B0A086F
:104D00006F0B0A08B50B0A08D10B0A08510C0A08E8
:104D100000000000003E5B4F5B3E3E6B4F6B3E1C55
:104D20003E7C3E1C183C7E3C181C577D571C1C5E6C
:104D30007F5E1C00183C1800FFE7C3E7FF00182443
:104D40001800FFE7DBE7FF30483A060E26297929ED
:104D500026407F050507407F05253F5A3CE73C5A22
:104D60007F3E1C1C08081C1C3E7F14227F22145FFF
:104D70005F005F5F06097F017F006689956A60605A
:104D800060606094A2FFA29408047E040810207E54
:104D9000201008082A1C08081C2A08081E101010D9
:104DA000100C1E0C1E0C30383E3830060E3E0E061F
:104DB000000000000000005F000000070007001472
:104DC0007F147F14242A7F2A122313086462364931
:104DD0005620500008070300001C22410000412219
:104DE0001C002A1C7F1C2A08083E0808008070301E
:104DF000000808080808000060600020100804028D
:104E00003E5149453E00427F400072494949462192
:104E100041494D331814127F1027454545393C4A06
:104E2000494931412111090736494949364649491D
:104E3000291E000014000000403400000008142265
:104E400041141414141400412214080201590906D3
:104E50003E415D594E7C1211127C7F494949363ED4
:104E6000414141227F4141413E7F494949417F09BA
:104E70000909013E414151737F0808087F00417FC5
:104E800041002040413F017F081422417F404040C3
:104E9000407F021C027F7F0408107F3E4141413E5B
:104EA0007F090909063E4151215E7F0919294626DD
:104EB0004949493203017F01033F4040403F1F20E1
:104EC00040201F3F4038403F6314081463030478B8
:104ED00004036159494D43007F41414102040810D8
:104EE00020004141417F0402010204404040404013
:104EF000000307080020545478407F284444383881
:104F000044444428384444287F38545454180008F2
:104F10007E090218A4A49C787F0804047800447DCC
:104F200040002040403D007F1028440000417F4069
:104F3000007C047804787C080404783844444438BD
:104F4000FC1824241818242418FC7C08040408489D
:104F50005454542404043F44243C4040207C1C20EE
:104F600040201C3C4030403C44281028444C909049
:104F7000907C4464544C44000836410000007700A3
:104F800000004136080002010204023C2623263CB0
:104F90001EA1A161123A4040207A3854545559213B
:104FA0005555794122545478422155547840205423
:104FB0005579400C1E527212395555555939545471
:104FC000545939555454580000457C410002457DE0
:104FD000420001457C407D1211127DF0282528F009
:104FE0007C545545002054547C547C0A097F493236
:104FF000494949323A4444443A324A4848303A41AD
:1050000041217A3A42402078009DA0A07D3D424255
:10501000423D3D4040403D3C24FF2424487E4943DE
:10502000662B2FFC2F2BFF0929F620C0887E090351
:1050300020545479410000447D413048484A323878
:105040004040227A007A0A0A727D0D19317D2629A4
:10505000292F28262929292630484D40203808089C
:10506000080808080808382F10C8ACBA2F102834D0
:10507000FA00007B000008142A142222142A1408C3
:105080005500550055AA55AA55AAFF55FF55FF00D2
:105090000000FF00101010FF00141414FF00101087
:1050A000FF00FF1010F010F0141414FC001414F79B
:1050B00000FF0000FF00FF1414F404FC1414171088
:1050C0001F10101F101F1414141F00101010F000D8
:1050D0000000001F101010101F10101010F0100012
:1050E0000000FF101010101010101010FF10000022
:1050F00000FF140000FF00FF00001F10170000FC5D
:1051000004F414141710171414F404F40000FF002E
:10511000F714141414141414F700F71414141714B7
:1051200010101F101F141414F4141010F010F000BD
:10513000001F101F0000001F14000000FC140000DE
:10514000F010F01010FF10FF141414FF14101010C2
:105150001F00000000F010FFFFFFFFFFF0F0F0F075
:10516000F0FFFFFF0000000000FFFF0F0F0F0F0F09
:105170003844443844FC4A4A4A347E020206060255
:105180007E027E0263554941633844443C04407EBC
:10519000201E2006027E020299A5E7A5991C2A4935
:1051A0002A1C4C7201724C304A4D4D3030487848C0
:1051B00030BC625A463D3E494949007E0101017EAC
:1051C0002A2A2A2A2A44445F444440514A444040FF
:1051D000444A51400000FF0103E080FF000008083E
:1051E0006B6B083612362436060F090F06000018BE
:1051F000180000001010003040FF0101001F0101E5
:105200001E00191D1712003C3C3C3C000000000031
:10521000000000000000000075130A0895130A083A
:1052200059120A0801290A0839140A08F50A0A0855
:10523000AD0A0A08DD0A0A08B90A0A08CB0A0A08F0
:10524000ED090A08F50A0A08D30C0A08E3150A084A
:10525000AB1B0A085D1B0A086F0B0A08B50B0A088E
:10526000D10B0A08510C0A080000000000000000E1
:1052700091090A08000103070F1F3F7FDA0281DA54
:1052800002818FDA1281AED580A8D300408D200034
:10529000A1C8DB40A4A62EAF0080C0E0F0F8FCFE61
:1052A0002200FF21000000000000000000000000BC
:1052B0000D140A0825140A0859120A0801290A08B7
:1052C00039140A08F50A0A08AD0A0A08DD0A0A08AC
:1052D000B90A0A08CB0A0A08ED090A08F50A0A08F9
:1052E000D30C0A08E3150A08AB1B0A085D1B0A0861
:1052F0006F0B0A08B50B0A08D10B0A08510C0A08F3
:10530000000000000001800000000000000000001C
:10531000038000000000000000000007C000000043
:1053200000000000000007C00000000000000000B6
:10533000000FC00000000000000000001FE000009F
:10534000000000000000001FE0000000000000005E
:1053500000003FE00000000000000000003FF000FF
:1053600000000000000000007FF0000000000000CE
:10537000001FF87FF0000000000000003FFE7FF0FB
:10538000000000000000003FFF7FF0000000000070
:1053900000001FFFFBE0000000000000000FFFF90D
:1053A000FFC00000000000000FFFF9FFF800000040
:1053B00000000007FFF1FFFF00000000000003FCF9
:1053C00073FFFF80000000000001FE3FFFFF800030
:1053D0000000000000FF1E0FFF00000000000000A2
:1053E0007FFE1FFC000000000000003FFFFFF800F0
:1053F0000000000000000FDFFFE0000000000000E0
:10540000001F19FFC0000000000000003F3CFF002B
:10541000000000000000007E7CF80000000000009A
:1054200000007FFE7C0000000000000000FFFFFC89
:105430000000000000000000FFFFFE000000000070
:10544000000000FFFFFE0000000000000001FFEF71
:10545000FE0000000000000001FFCFFE0000000081
:1054600000000003FF07FE0000000000000003FC36
:1054700007FE0000000000000003F003FE00000033
:1054800000000000018000FE00000000000000009D
:1054900000007E000000000000000000003E000050
:1054A00000000000000000000C00000000000007E9
:1054B0008000FC000003C0000000078001FC000029
:1054C00003C0000000078001FC000003C0000000D2
:1054D000078001E00000001E000000078001E000DE
:1054E00000001E007FE3F79FF9FDE7787BDFC0FF38
:1054F000F7FFBFFDFDFF787BDFC0FFF7FFBFFDFDBE
:10550000FF787BDFC0F0F787BC3DE1FF787BDE00F2
:10551000F0F787BC3DE1F0787BDE0000F787803D47
:10552000E1E0787BDE007FF7879FFDE1E0787BDEBE
:1055300000FFF787BFFDE1E0787BDE00F0F787BC76
:105540003DE1E0787BDE00F0F787BC3DE1E0787B71
:10555000DE00F0F787BC3DE1E0787BDE00FFF7FF7F
:10556000BFFDE1E07FFBDFC0FFF7FFBFFDE1E07FB4
:10557000FBDFC07CF3F39F3DE1E03E7BCFC000004A
:10558000000000000000000000FFFFFFFFFFFFFF22
:10559000FFFFFFC0FFFFFFFFFD68DB111A31C0FFF7
:1055A000FFFFFFFD2B5AFB6AEFC0FFFFFFFFFD4B24
:1055B0005B3B1A33C0FFFFFFFFFD6B5BDB6AFDC087
:1055C000000060000000000000000000000000007B
:1055D00000E00000000000000000000000000001EA
:1055E000E00000000000000000000000000001F0EA
:1055F0000000000000000000000000000003F000B8
:1056000000000000000000000000000007F00000A3
:10561000000000000000000000000007F80000008B
:10562000000000000000000000000FF80000000370
:10563000C0007E000001E0007F0FF800000003C002
:1056400000FE000001E000FFEFF800000003C000D2
:10565000FE000001E000FFFFF800000003C000F0C2
:105660000000000F007FFE7FC0000003C000F000BC
:1056700000000F003FFE7FF83FF1FBCFFCFEF3BCC4
:105680003DEFE01FFE7FFF7FFBFFDFFEFEFFBC3D27
:10569000EFE01FC6FFFF7FFBFFDFFEFEFFBC3DEF1D
:1056A000E00FE3C7FE787BC3DE1EF0FFBC3DEF00DA
:1056B00007FF87FC787BC3DE1EF0F83C3DEF00015E
:1056C000FFFFF0007BC3C01EF0F03C3DEF0001F394
:1056D0007FE03FFBC3CFFEF0F03C3DEF0003E33F34
:1056E000807FFBC3DFFEF0F03C3DEF0007E73C00AE
:1056F000787BC3DE1EF0F03C3DEF0007FFBE007874
:105700007BC3DE1EF0F03C3DEF0007FFFE00787B20
:10571000C3DE1EF0F03C3DEF000FFFFE007FFBFFFD
:10572000DFFEF0F03FFDEFE00FFFFF007FFBFFDF4C
:10573000FEF0F03FFDEFE00FF9FF003E79F9CF9E5C
:10574000F0F01F3DE7E01FF1FF0000000000000047
:1057500000000000001F80FF007FFFFFFFFFFFFF32
:10576000FFFFFFE01C007F007FFFFFFFFEB46D889E
:105770008D18E000001F007FFFFFFFFE95AD7DB597
:1057800077E000000F007FFFFFFFFEA5AD9D8D19A4
:10579000E0000006007FFFFFFFFEB5ADEDB57EE047
:1057A0000000000000000000ED260A0805270A0896
:1057B00000081018202830386E616E006F76660081
:1057C0002E00696E660062617564005365726961DE
:1057D0006C0055534253657269616C310074797085
:1057E0006500706172616D00636D640069640068DA
:1057F0006E64007374726D0066696C74006C766C14
:105800000061646448616E646C65720072656D6FFE
:10581000766548616E646C657200656E756D486191
:105820006E646C657273004A534F4E5374726561B7
:105830006D4C6F6748616E646C65720061707000DA
:10584000253031307520005D20002564002C2000BB
:1058500028293A2000205B00636F6465203D20000A
:1058600025690064657461696C73203D20000D0A30
:10587000006C6E00666E00636F6465006465746141
:10588000696C006E6F6E6500747261636500696EAD
:10589000666F007761726E006572726F7200706180
:1058A0006E696300616C6C005A00252B3033643ADA
:1058B000253032750025592D256D2D256454254838
:1058C0003A254D3A2553257A0061736374696D65F5
:1058D000000000000000000000000000A52D0A08E4
:1058E000AB2D0A08EF2D0A08B92D0A08A72D0A08C2
:1058F00000000000000000003D330A082D330A08B4
:105900002F330A080000000000000000F9330A08E5
:1059100049340A0857340A0801290A0835340A08A4
:10592000FB330A0811340A0843340A0827340A08EA
:10593000F5330A08000000000000000095360A0850
:10594000E5360A08F3360A0801290A08A9360A08C2
:10595000CB360A08B7360A08DF360A0897360A082F
:105960009B360A080000000000000000CD370A083E
:1059700017380A08EF370A08CF370A08F7370A0836
:10598000FF370A0807380A080F380A080000000025
:105990000000000017390A080D390A0803390A08FF
:1059A00081380A08CF2B0A08F7380A08EB380A08AA
:1059B000E3380A08D9380A08CF380A088B380A08A9
:1059C000000000000000000035390A083F390A08CD
:1059D00049390A0853390A085D390A0869390A0839
:1059E00075390A0881390A0889390A0893390A0879
:1059F0009D390A08000000000000000000000000BF
:105A00000000000000000000000000000000000096
:105A10000000000000000000000000000000000086
:105A20000000000000000000000000000000000076
:105A30000000000000000000000000000000000066
:105A40000000000000000000000000000000000056
:105A5000000000000000000019050A08E9090A0812
:105A60006F130A0805140A0809140A08291D0A08F0
:105A7000BD210A08CD280A08E92B0A08F92B0A08D3
:105A8000512C0A0821390A08ED390A084D3B0A0849
:105A9000453C0A08C93C0A088D3D0A08513E0A08DF
:045AA0000000000002
:105AA400010000000A0000000100000001000000E5
:105AB40030750000C9580A0800000000F8590A08A7
:105AC400185A0A08385A0A080000000000000000AA
